:0A13DE0000010202030304040505E8
:1007FD00E4F52CF52BF52AF529C203C200C202C27D
:10080D00011213527E107FB88E0A8F0B7512107560
:10081D0013CA7508107509D47510107511F4751477
:10082D0011751514EE54E0700302094B752D00750A
:10083D002E808E2F8F30C374669FFF74119ECF2430
:10084D0002CF3400FEE48F288E27F526F525F524FA
:10085D00F523F522F521AF28AE27AD26AC25AB2427
:10086D00AA23A922A821C312051F502AE52E25244B
:10087D00F582E52D3523F58374CDF0E4FAF9F8E52D
:10088D00242401F524EA3523F523E93522F522E860
:10089D003521F52180C0E4F524F523F522F521AFAE
:1008AD0028AE27AD26AC25AB24AA23A922A821C3A7
:1008BD0012051F5037E5302524F582E52F3523F538
:1008CD0083E0FFE52E2524F582E52D3523F583EF15
:1008DD00F0E4FAF9F8E5242401F524EA3523F523AB
:1008ED00E93522F522E83521F52180B3852D0A85DC
:1008FD002E0B74B82480FF741034FFFEC3E5139FD4
:10090D00F513E5129EF512C3E50D9FF50DE50C9E51
:10091D00F50CC3E50F9FF50FE50E9EF50EC3E5092A
:10092D009FF509E5089EF508C3E5119FF511E51042
:10093D009EF510C3E5159FF515E5149EF514D2E847
:10094D0043D82090E668E04409F090E65CE0443D31
:10095D00F0D2AF90E680E054F7F0538EF8C203303A
:10096D000105120563C2013003291213F85024C288
:10097D000312130E20001690E682E030E704E0200B
:10098D00E1EF90E682E030E604E020E0E41212B6FA
:08099D001213FA12140480C7C2
:0109A500222F
:1005630090E6B9E0700302063F1470030206E82424
:10057300FE700302077D24FB700302063914700327
:1005830002063314700302062714700302062D2497
:100593000560030207E91213FC40030207F590E626
:1005A300BBE024FE602C14604724FD601614603108
:1005B30024067066E50A90E6B3F0E50B90E6B4F026
:1005C3000207F5E51290E6B3F0E51390E6B4F00206
:1005D30007F5E50C90E6B3F0E50D90E6B4F00207FD
:1005E300F5E50E90E6B3F0E50F90E6B4F00207F5FB
:1005F30090E6BAE0FF1212E2AA06A9077B01EA49D4
:100603004B600DEE90E6B3F0EF90E6B4F00207F521
:1006130090E6A0E04401F00207F590E6A0E0440173
:10062300F00207F51213C00207F51213F00207F5E3
:100633001213E80207F51213AE0207F51213FE4078
:10064300030207F590E6B8E0247F602B14603C2496
:100653000260030206DEA200E433FF25E0FFA202EC
:10066300E4334F90E740F0E4A3F090E68AF090E69D
:100673008B7402F00207F5E490E740F0A3F090E6F4
:100683008AF090E68B7402F00207F590E6BCE05422
:100693007EFF7E00E0D3948040067C007D018004D1
:1006A3007C007D00EC4EFEED4F24DEF58274133E9C
:1006B300F583E493FF3395E0FEEF24A1FFEE34E6E8
:1006C3008F82F583E0540190E740F0E4A3F090E6D5
:1006D3008AF090E68B7402F00207F590E6A0E044FE
:1006E30001F00207F512140040030207F590E6B883
:1006F300E024FE601D240260030207F590E6BAE0E1
:10070300B40105C2000207F590E6A0E04401F0023F
:1007130007F590E6BAE0705990E6BCE0547EFF7EA0
:1007230000E0D3948040067C007D0180047C007D42
:1007330000EC4EFEED4F24DEF58274133EF583E4A8
:1007430093FF3395E0FEEF24A1FFEE34E68F82F5AD
:1007530083E054FEF090E6BCE05480FF131313547F
:100763001FFFE0540F2F90E683F0E04420F00207D0
:10077300F590E6A0E04401F08078121402507390E3
:10078300E6B8E024FE60202402706790E6BAE0B485
:100793000104D200805C90E6BAE06402605490E603
:1007A300A0E04401F0804B90E6BCE0547EFF7E0065
:1007B300E0D3948040067C007D0180047C007D00B2
:1007C300EC4EFEED4F24DEF58274133EF583E49385
:1007D300FF3395E0FEEF24A1FFEE34E68F82F5832D
:1007E300E04401F0800C120C22500790E6A0E04494
:0907F30001F090E6A0E04480F062
:0107FC0022DA
:03003300020FFCBD
:040FFC0053D8EF32A5
:1010B800120100020000004056040DB400000102B5
:1010C80000010A0600020000004001000902200099
:1010D800010100A0320904000002FF00000007051A
:1010E8000202000200070586020002000902200031
:1010F800010100A0320904000002FF0000000705FA
:1011080001024000000705810240000004030904B1
:101118001E0341004E0041004C004F0047002000D4
:101128004400450056004900430045005300300381
:10113800750057004100560045002000200045007A
:10114800560041004C0055004100540049004F0032
:101158004E00200042004F004100520044000000B1
:10135200D20090E600E054E74410F075B2FF7580C9
:081362000175B3FFE4F59022D0
:0114040022C5
:0213F800D322FE
:0213FA00D322FC
:0213FC00D322FA
:0813E80090E6BAE0F553D322B0
:1013AE0090E740E553F0E490E68AF090E68B04F087
:0213BE00D32238
:0813F00090E6BAE0F551D322AA
:1013C00090E740E551F0E490E68AF090E68B04F077
:0213D000D32226
:0213FE00D322F8
:02140000D322F5
:02140200D322F3
:100C220090E6B9E024217003020D2C240260030235
:100C32000D3A90E6B8E064406003020CCD90E68A7B
:100C4200F090E68BF090E6A0E020E1F990E742E038
:100C5200FFE4FCFDFEFBFA7901F81204C2A804A924
:100C620005AA06AB0790E741E0FE90E740E07C0072
:100C72002400FFEC3EFEE4FDEB2FFFEA3EFEED39E1
:100C8200FDEC38FCC004C005C006C00790E743E095
:100C9200FFE4FCFDFEFBFAF978011204C2D003D096
:100CA20002D001D000EF2BF536EE3AF535ED39F5ED
:100CB20034EC38F53390E744E0FF7E0085363C851E
:100CC200353B85343A853339120F4690E6B8E064F5
:100CD200C0706590E6A0E020E1F9E4F53190E6BA53
:100CE200E0FFE4FCFDFEFBFA7901F81204C2A8045D
:100CF200A905AA06AB07E4FCFDFEEB2531F536EEAD
:100D02003AF535ED39F534EC38F533AF36AE35AD6D
:100D120034FC753B01E4F53C120E538F32E490E64D
:100D22008AF090E68B7403F0800E1209A6E490E636
:090D32008AF090E68B7405F0C311
:010D3B002295
:080E53008F3A8E398D388C377F
:100E5B004380015380FD5380FE5380FBE4FDEDC3C3
:100E6B00953B4003020F3DE4F53DF53EF541F54260
:100E7B00FCE4FB0BBB19FC438002E4FB0BBB19FC32
:100E8B005380FD0CBC01EAE4FCE4FB0BBB19FCE555
:100E9B003DC313F53DE53E13F53EE59030E00B7495
:100EAB0020253EF53EE4353DF53DE541C313F541C7
:100EBB00E54213F542E58030E30B74202542F54201
:100ECB00E43541F541438002E4FB0BBB19FC538035
:100EDB00FD0CBC06B4AE3C053C74402EF582E434EC
:100EEB00E7F583E53EF0AE3C053C74402EF582E41D
:100EFB0034E7F583E542F0E590FFAE3C053C7440EA
:100F0B002EF582E434E7F583EFF0E580FFAE3C0588
:100F1B003C74402EF582E434E7F583EFF0AF3C05EB
:100F2B003C74402FF582E434E7F5837404F00D0232
:0A0F3B000E695380FD438001AF3CB6
:010F45002289
:040F46008E378F381B
:100F4A00AC37AD38EC1201258F4A8E498D488C4753
:100F5A007F007E007D007C40120D3CE4FBFAF978AC
:100F6A004012008312015E8F408E3F8D3E8C3D53AE
:100F7A0080FEE4F5410541E541B40AF9E4F542C3CE
:100F8A00E5429538E5376480F87480985053E53C1B
:100F9A005540FFE53B553FFEE53A553EFDE53955DF
:100FAA003DFCAB40AA3FA93EA83DC312051F7005F0
:100FBA0043800480035380FBAF40AE3FAD3EAC3D5F
:100FCA0078011205308F408E3F8D3E8C3D43800262
:100FDA00E4F5410541E541B40AF95380FD05428033
:100FEA009EE4F5410541E541B40AF9438001538085
:010FFA00FBFB
:010FFB0022D3
:1009A600438001438004E4F537F538F539F53AF527
:1009B6003BFA438002E4FB0BBB04FCE53725E0F57C
:1009C60037E5905401FFE48F3FF53EF53DF53CE5F4
:1009D60037453FFFE53EE53DE53C8F375380FDE477
:1009E600FB0BBB04FC0ABA08C9E4FA438002E4FB29
:1009F6000BBB04FCE53825E0F538E5905401FFE42F
:100A06008F3FF53EF53DF53CE538453FFFE53EE5D4
:100A16003DE53C8F385380FDE4FB0BBB04FC0ABA72
:100A260008C9E4FA438002E4FB0BBB04FCE5392564
:100A3600E0F539E5905401FFE48F3FF53EF53DF5CD
:100A46003CE539453FFFE53EE53DE53C8F395380C2
:100A5600FDE4FB0BBB04FC0ABA08C9E4FA438002B6
:100A6600E4FB0BBB04FCE53A25E0F53AE5905401BE
:100A7600FFE48F3FF53EF53DF53CE53A453FFFE5A2
:100A86003EE53DE53C8F3A5380FDE4FB0BBB04FCA1
:100A96000ABA08C9E4FA438002E4FB0BBB04FCE58E
:100AA6003B25E0F53BE5905401FFE48F3FF53EF52D
:100AB6003DF53CE53B453FFFE53EE53DE53C8F3BEF
:100AC6005380FDE4FB0BBB04FC0ABA05C990E74062
:100AD600E537F0A3E538F0A3E539F0A3E53AF0A34E
:060AE600E53BF05380FD2A
:010AEC0022E7
:10133300C0E0C083C08290E6B5E04401F0D201531F
:0F13430091EF90E65D7401F0D082D083D0E0325C
:10138200C0E0C083C0825391EF90E65D7404F0D058
:0613920082D083D0E0329E
:10139800C0E0C083C0825391EF90E65D7402F0D044
:0613A80082D083D0E03288
:10124800C0E0C083C08290E680E030E70E85080CDD
:1012580085090D85100E85110F800C85100C8511E0
:101268000D85080E85090F5391EF90E65D7410F017
:07127800D082D083D0E032E8
:10136A00C0E0C083C082D2035391EF90E65D740857
:08137A00F0D082D083D0E032F4
:10127F00C0E0C083C08290E680E030E70E85080CA6
:10128F0085090D85100E85110F800C85100C8511A9
:10129F000D85080E85090F5391EF90E65D7420F0D0
:0712AF00D082D083D0E032B1
:0114050032B4
:0114060032B3
:0114070032B2
:0114080032B1
:0114090032B0
:01140A0032AF
:01140B0032AE
:01140C0032AD
:01140D0032AC
:01140E0032AB
:01140F0032AA
:0114100032A9
:0114110032A8
:0114120032A7
:0114130032A6
:0114140032A5
:0114150032A4
:0114160032A3
:0114170032A2
:0114180032A1
:0114190032A0
:01141A00329F
:01141B00329E
:01141C00329D
:01141D00329C
:01141E00329B
:01141F00329A
:011420003299
:011421003298
:011422003297
:011423003296
:011424003295
:011425003294
:011426003293
:011427003292
:011428003291
:1012B60090E682E030E004E020E60B90E682E03043
:1012C600E119E030E71590E680E04401F07F147EF6
:0C12D6000012120290E680E054FEF022AC
:10130E0090E682E044C0F090E681F0438701000051
:04131E0000000022A9
:0212E200A9075A
:1012E400AE14AF158F828E83A3E064037017AD0133
:1012F40019ED7001228F828E83E07C002FFDEC3E7D
:09130400FEAF0580DF7E007F00D2
:01130D0022BD
:101202008E318F3290E600E054187012E5322401DC
:10121200FFE43531C313F531EF13F532801590E653
:1012220000E05418FFBF100BE53225E0F532E5313E
:1012320033F531E5321532AE31700215314E6005AB
:0612420012132280EE22CF
:101322007400F58690FDA57C05A3E582458370F9DE
:011332002298
:03004300021000A8
:0300530002100098
:1010000002133300021398000213820002136A00D5
:101010000212480002127F000214050002140600AA
:1010200002140700021408000214090002140A0046
:1010300002140B0002140C0002140D0002140E0026
:1010400002140F0002140600021410000214110012
:1010500002141200021413000214140002141500EA
:101060000214160002140600021406000214060000
:1010700002141700021418000214190002141A00B6
:1010800002141B0002141C0002141D0002141E0096
:1010900002141F0002142000021421000214220076
:1010A0000214230002142400021425000214260056
:0810B0000214270002142800BD
:100080000201D4EC5D046005E8590470030201CA62
:10009000120195580460F6EC4860F2EC7004FDFE25
:1000A000FF22C860DB2481C85009C3986002500653
:1000B0000201D19850CAF582E9294B4A7005AB82FA
:1000C0000201C075F0007C1A7880C3EF9BEE9AEDB8
:1000D00099400DC3EF9BFFEE9AFEED99FDE842F0CB
:1000E000DC23ACF0D0E0FFD0E0FED0E0FDAB82201E
:1000F000E7101BEB60BAEC2CFCEF33FFEE33FEEDA8
:1001000033FD0201ACE803F830E705C0F075F000FC
:10011000EF2FFFEE33FEED33FD40B830E7C280AA8B
:1001200075F020800E75F010800575F0087D007E5A
:10013000007F003392D530D503120511EC33401007
:10014000EF33FFEE33FEED33FDEC33FCD5F0ED2263
:0E015000E5F0247EA2D513CC92E7CDCEFF229F
:10015E00EDD2E7CD33EC3392D524814006E4FFFE99
:10016E00FDFC22FCE4CFCECDCC24E0501174FF80F8
:10017E00EDC3CC13CCCD13CDCE13CECF13CF047095
:07018E00F030D5DE0205117F
:100D3C008F468E458D448C43E4FFFE7D807C3FAB1B
:100D4C0046AA45A944A8431203F77009AF46AE451D
:100D5C00AD44AC4322AF46AE45AD44AC431201DFCB
:100D6C00FBAF4AAE49AD48AC471201DFFFBF0108EB
:100D7C00E4FFFE7D807C3F22EF64046022EB640480
:100D8C00601DBB0127E4FFFEFDFCAB4AAA49A94844
:100D9C00A8471203F760084006E4FFFEFDFC22742E
:100DAC00FFF54AF549F548F547020E4AE4F54BF5CF
:100DBC004CFFFEFDFCAB46AA45A944A8431203F721
:100DCC00504BAF4AAE49AD48AC4712015E8E4B8FCB
:100DDC004CAC4BAD4CEC120125C8ECC8C9EDC9CAE2
:100DEC00EECACBEFCBAF4AAE49AD48AC471201FCD3
:100DFC00E4FBFAF9F81203F770A5AF46AE45AD4423
:100E0C00AC431204648F468E458D448C43AF46AE82
:100E1C0045AD44AC43120B21AB4AAA49A948A8479B
:100E2C001202F11211A08F4A8E498D488C47E54C65
:100E3C0030E00B1204648F4A8E498D488C47AF4AC0
:070E4C00AE49AD48AC47229E
:10019500E9D2E7C933E833F892D5EDD2E7CD33ECB0
:0701A50033FC5002B2D52229
:1001AC00EC30E7100FBF000C0EBE00080DBD0004B4
:1001BC000BEB6014A2D5EB13FCED92E7FD2274FF60
:1001CC00FCFDFEFF22E480F8A2D574FF13FC7D80B9
:0301DC00E480EFCD
:1001DF00ED33EC33601004700FED547F7005740233
:0A01EF0092E2227404220422E422AA
:1001F9000201CAE86480F8E933E83360110460F069
:10020900ED33EC337009E8FCE9FDEAFEEBFF22046B
:1002190060DED3EB9FEA9EE99DE8C2E78CF0C2F766
:1002290095F0400CE8CCF8E9CDF9EACEFAEBCFFB32
:1002390012019585D0F05804700320D5B3E80470F5
:10024900075002B2D50201D492D5EC0460F7E4CC90
:10025900C0E0C398F8603B94186008400DD0E0FBFB
:100269000201ACE4FBFAC9FC8028E830E406E4C9E1
:10027900FBE4CAFCE830E305E4C9CACBFCE854074F
:100289006010F8C3E913F9EA13FAEB13FBEC13FC5A
:10029900D8F130F52FC3E49CFCEF9BFFEE9AFEEDFD
:1002A90099FDD0E0FBEF4E4D4C701222DB030201A9
:1002B900D1EC2CFCEF33FFEE33FEED33FDED30E7EF
:1002C900EB0201ACEF2BFFEE3AFEED39FDD0E0FB7E
:1002D90050130BBB00030201D4ED13FDEE13FEEF27
:0802E90013FFEC13FC0201AC51
:1002F100EC4D6011E8497017ED33EC3304600DE407
:10030100FCFFFEFD22E933E8330470F80201CA1252
:10031100019558046009E4CC248150062850090253
:1003210001D42840030201D1C0E0EB4A7044B980F6
:1003310006D0E0FB0201C0EF4E701CBD8008EBFF50
:10034100EAFEE9FD80EBE98DF0A4FEE5F00203DAB7
:10035100E9CDF9EAFEEBFFEF89F0A4FCE5F0CE89E7
:10036100F0A42EFFE435F0CD89F0A42DFEE435F0A4
:100371008067EF4E7005BD80D780C3EF8BF0A4ACD2
:10038100F0EE8BF0A42CFCE435F0F8EF8AF0A42C0D
:10039100E5F038FCE433CB8DF0A42CFCE5F03BF820
:1003A100EE8AF0A42CFCE5F038F8E433CF89F0A410
:1003B1002CFCE5F038CF3400CE89F0A42FFFE5F016
:1003C1003EFEE433C98DF0A42EFEE5F039CD8AF06E
:1003D100A42FFFE5F03EFEE43DFD33D0E0FB5007E6
:1003E1000BBB000F0201D4EC2CFCEF33FFEE33FE0C
:0603F100ED33FD0201AC3A
:1003F70074F8CC6480CCC86480C8F582046043C3B9
:10040700EB9FF5F0EA9E42F0E99D42F0E89C45F04B
:1004170060305018E5825FFFE582F42B5582FB5070
:10042700210ABA001D09B90019088016E5825BFB8D
:10043700E582F42F5582FF50090EBE00050DBD0061
:10044700010CC3EB9FF5F0EA9E42F0E99D42F0E80C
:0D0457009C45F06007CC4820E701B3EC2283
:10046400ED33EC33600A047003BD8004ECB2E7FCA6
:010474002265
:1011680033DA929E35B16011377FE5FE39218489E3
:101178003AAEC3FF3C1D955B3D6358473E75FDF095
:101188003F3172183F800000C2D50201D40201CA63
:10119800BD80FA50F30201D1ED33EC330460F17BEA
:1011A8003B7AAA79B8783F1202F1ED33EC3392D545
:1011B800247B5011A2D570DB500BED4480240450E1
:1011C80004A2D580CEEFFBEEFAEDF9ECF812015E41
:1011D800EFF582F404FC12012A120200C082901179
:1011E800687409120484ED33CC33D0F092D525F01D
:0A11F800A2D57001C313CC13FD2231
:100AED003E9248DA3ECCCCCD3F2AAAAB4000000066
:100AFD003F8000003F9837F03FB504F33FD744FCEB
:100B0D003E3172173EB172173F0515913EDE5BD92E
:100B1D00D2058002C205EDD2E7F8CD33EC33047077
:100B2D000BBD800592D50201D40201CA40FBD3143E
:100B3D0060F2F5F07C3FEE7A00C39496C8948B403A
:100B4D00230AC89469C8941A401A0AC89468C894AC
:100B5D001F40110AC8945AC89425400805F07A0020
:100B6D00CDC2E7CDC0F08C4D8D4E8E4F8F50EA2308
:100B7D0023C0E024FDF582E4340AF58312055312F7
:100B8D000200ECC0E0EDC0E0EEC0E0EFC0E0120509
:100B9D0043A84DA94EAA4FAB501201FCD0E0FBD09B
:100BAD00E0FAD0E0F9D0E0B2E7F81200838C4D8D79
:100BBD004E8E4F8F50900AED7403120475A84DA9F7
:100BCD004EAA4FAB501202F1D0E0600F2409F5820E
:100BDD00E4340BF5831205531202008C4D8D4E8EAD
:100BED004F8F50D0E0C3947FFDE49400FC1201259B
:100BFD007B187A727931783F1202F1A84DA94EAA6D
:100C0D004FAB5012020030050B7BD97A5B79DE7841
:050C1D003E1202F1226D
:10047500C0E0EFFBEEFAEDF9ECF81202F1D0E0F591
:10048500F0EFFBEEFAEDF9ECF8120543A3A3A3A3F5
:10049500E8C0E0E9C0E0EAC0E0EBC0E0C0F012026D
:1004A500F1120553A3A3A3A3120200D0F0D0E0FBE1
:0D04B500D0E0FAD0E0F9D0E0F8D5F0D42284
:030000000213D216
:0C13D200787FE4F6D8FD7581720207FDFB
:1004C200E88FF0A4CC8BF0A42CFCE98EF0A42CFCD9
:1004D2008AF0EDA42CFCEA8EF0A4CDA8F08BF0A457
:1004E2002DCC3825F0FDE98FF0A42CCD35F0FCEBB6
:1004F2008EF0A4FEA9F0EB8FF0A4CFC5F02ECD397B
:0F050200FEE43CFCEAA42DCE35F0FDE43CFC22E7
:0E051100C3E49FFFE49EFEE49DFDE49CFC22FB
:10051F00EB9FF5F0EA9E42F0E99D42F0E89C45F032
:01052F0022A9
:10053000E8600FECC313FCED13FDEE13FEEF13FFA9
:03054000D8F122CD
:10054300E493FC740193FD740293FE740393FF22FE
:10055300E493F8740193F9740293FA740393FB22FE
:00000001FF
